:060000000A128A110C280F
:10000800FE00030EF1000A08F2000A128A15FA2B04
:100018000A128A110F28F901FA0183160313B50190
:10002800B601B70183010A128A15D32C8312031370
:1000380047088039CC004C08D1004708CC004C0751
:10004800CD004D08D700C61F2A282B282C28571466
:1000580057080319302831284028570A031D352826
:1000680036283E280030C7000030C6000030C500E2
:100078000030C400C61748280030C7000030C6004A
:100088000030C5000030C4004B088039CC004C0853
:10009800D1064B08CC004C07CD004D08D200CA1F32
:1000A8005628572858285214520803195C285D28E6
:1000B8006C28520A031D612862286A280030CB0088
:1000C8000030CA000030C9000030C800CA177428C0
:1000D8000030CB000030CA000030C9000030C80032
:1000E80052080319782879287E285708031D7D2887
:1000F8007E2887280030C7000030C6000030C500C1
:100108000030C4007A2B4408CC004C08F3004A089D
:100118000A128A15D1230A128A117408831203134A
:10012800DD007308DC005C08CC00CD01CE01CF01F6
:100138004F08D6004E08D5004D08D4004C08D3000F
:100148005D08CC00CD01CE01CF014F08DB004E0881
:10015800DA004D08D9004C08D8004508CC004C08F6
:10016800F30049080A128A15D1230A128A11740861
:1001780083120313DD007308DC005C08CC00CD019A
:10018800CE01CF014C08D3074D0803110318013ED7
:100198000319CF28D4074E0803110318013E031989
:1001A800D628D5074F0803110318013E0319DD2887
:1001B800D6075D08CC00CD01CE01CF014C08D80789
:1001C8004D0803110318013E0319EB28D9074E08FF
:1001D80003110318013E0319F228DA074F08031127
:1001E8000318013E0319F928DB074608CC004C0820
:1001F800F30048080A128A15D1230A128A117408D2
:1002080083120313DD007308DC005C08CC00CD0109
:10021800CE01CF014C08D3074D0803110318013E46
:1002280003191729D4074E0803110318013E0319AF
:100238001E29D5074F0803110318013E0319252964
:10024800D6075D08CC00CD01CE01CF014C08D807F8
:100258004D0803110318013E03193329D9074E0825
:1002680003110318013E03193A29DA074F0803114D
:100278000318013E03194129DB070830CC0003109D
:10028800D30DD40DD50DD60DCC0B43294508CC0084
:100298004C08F30048080A128A15D1230A128A1159
:1002A800740883120313DD007308DC005C08CC00BB
:1002B8005D08CD00CE01CF014C08D3074D080311CE
:1002C8000318013E03196929D4074E0803110318BE
:1002D800013E03197029D5074F0803110318013E81
:1002E80003197729D6074408CC004C08F3004908BD
:1002F8000A128A15D1230A128A1174088312031369
:10030800DD007308DC005C08CC005D08CD00CE0180
:10031800CF014C08D3074D0803110318013E0319F8
:100328009629D4074E0803110318013E03199D2985
:10033800D5074F0803110318013E0319A429D6074E
:100348000830CC000310D30DD40DD50DD60DCC0B31
:10035800A6294408CC004C08F30048080A128A155C
:10036800D1230A128A11740883120313DD0073085B
:10037800DC005C08CC005D08CD00CE01CF014C0844
:10038800D3074D0803110318013E0319CC29D407DC
:100398004E0803110318013E0319D329D5074F0846
:1003A80003110318013E0319DA29D6074508CC00C2
:1003B8004C08F3004A080A128A15D1230A128A1136
:1003C800740883120313DD007308DC005C08CC009A
:1003D8005D08CD00CE01CF014C08D8074D080311A8
:1003E8000318013E0319F929D9074E080311031808
:1003F800013E0319002ADA074F0803110318013ECA
:100408000319072ADB074608CC004C08F300490803
:100418000A128A15D1230A128A1174088312031347
:10042800DD007308DC005C08CC005D08CD00CE015F
:10043800CF014C08D8074D0803110318013E0319D2
:10044800262AD9074E0803110318013E03192D2A3D
:10045800DA074F0803110318013E0319342ADB0792
:100468004608CC004C08F3004A080A128A15D12322
:100478000A128A11740883120313DD007308DC0062
:100488005C08CC005D08CD00CE01CF010830031018
:10049800CC0DCD0DCE0DCF0DFF3E031D4B2A4C08C4
:1004A800D8074D0803110318013E03195C2AD90720
:1004B8004E0803110318013E0319632ADA074F088F
:1004C80003110318013E03196A2ADB075308CC00FD
:1004D8005408CD005508CE005608CF001830031038
:1004E800CF0CCE0CCD0CCC0CFF3E031D732A4C0850
:1004F800D8074D0803110318013E0319842AD907A8
:100508004E0803110318013E03198B2ADA074F0816
:1005180003110318013E0319922ADB070830CC00A7
:100528000310D30DD40DD50DD60DCC0B942A570836
:100538005207CC00CD01CD0D4C08823EDC004D08A1
:100548000318013EFF3EDD00C62A0130CC0003102F
:10055800D80DD90DDA0DDB0DCC0BAB2AD61FB52A79
:10056800B62AB72A58140130CC000310D30DD40D85
:10057800D50DD60DCC0BB92AFF30DC070318DD0AE0
:10058800FF30DD07DA1FC92ACA2AA92AD201D61FD5
:10059800CE2ACF2AEB2AFF305305CC00FF30540572
:1005A800CD00FF305505CE007F305605CF004F08EF
:1005B8004E044D044C040319E22AE32AE62AD20128
:1005C800D20AEB2A581CE92AEA2AEB2AE32A52081B
:1005D8000319EF2AF02A212B0130D807003003181D
:1005E8000130D907003003180130DA07003003184A
:1005F8000130DB075B1C012B022B212B5808CC0098
:100608005908CD005A08CE005B08CF000130D00051
:100618004F0DCF0CCE0CCD0CCC0CD00B0C2B4F08A7
:10062800DB004E08DA004D08D9004C08D80001302C
:10063800DC070318DD0A0030DD075D08803AFF009B
:1006480080307F02031D2A2BFF305C02031C2D2BF8
:100658002E2B392B7F3083120313DB008030DA0016
:100668000030D9000030D8006E2B831203135D08C8
:10067800803AFF0080307F02031D442B01305C026A
:100688000318472B482B542B003083120313DB002D
:100698000030DA000030D9000030D800D1016E2BCC
:1006A800831203135C08CC004C08D700FF30D80530
:1006B800FF30D9057F30DA050030DB05571C652B84
:1006C800662B672BDA175708CC0003104C0CCD00AB
:1006D8004D08DB005108CC004C08DB045B08C70060
:1006E8005A08C6005908C5005808C40008008312F3
:1006F800031361088039E600660883160313A00017
:10070800831203136108E6006607E700670883168B
:100718000313A20083120313E01F932B942B972B30
:1007280083160313221483160313220803199D2B1F
:100738009E2BB12B220A031DA22BA32BAD2B00301D
:1007480083120313E1000030E0000030DF000030C6
:10075800DE008312E017E101BB2B00308312031384
:10076800E1000030E0000030DF000030DE00650806
:100778008039E600660883160313A10021082006C5
:100788000319C72BC82BC92B20178312031365081D
:10079800E6006607E700670883160313A1008312C3
:1007A8000313E41FD82BD92BDC2B83160313211436
:1007B8008316031321080319E22BE32BF62B210AD6
:1007C800031DE72BE82BF22B003083120313E500FF
:1007D8000030E4000030E3000030E2008312E41748
:1007E800E501002C003083120313E5000030E4001B
:1007F8000030E3000030E2008316031322082102D0
:100808000318072C082C7E2C201F0B2C0C2C142CC6
:10081800803083120313E600660883160313A006CC
:10082800220883120313E600660883160313A30045
:10083800210883120313E600660883160313A20037
:10084800230883120313E600660883160313A10026
:10085800831203135E08E600660883160313A300D9
:10086800831203136208E6006608DE00831603138A
:10087800230883120313E6006608E2005F08E60017
:10088800660883160313A300831203136308E600A4
:100898006608DF0083160313230883120313E60098
:1008A8006608E3006008E600660883160313A300E1
:1008B800831203136408E6006608E0008316031336
:1008C800230883120313E6006608E4006108E600C3
:1008D800660883160313A300831203136508E60052
:1008E8006608E10083160313230883120313E60046
:1008F8006608E50083160313A30121088312031376
:10090800E600E7016708E90083160313220883124B
:1009180003136602E800031CE9036908803AFF0034
:1009280080307F02031D9A2C1A306802031C9D2C0C
:100938009E2CF02C83120313610860045F045E048C
:10094800031DA72CA92C0130AA2C0030E60066084C
:1009580083160313A300003083120313E100003051
:10096800E0000030DF000030DE00831603132108AA
:1009780083120313E600660883160313A200F82CFB
:10098800231CC72CC82CD52C230883120313E6007C
:100998000310660C0138E700670883160313A300E9
:1009A800D72C0310A30C831203135E1CDC2CDD2C44
:1009B800E02C83160313A31701308312E600610DA0
:1009C800E10CE00CDF0CDE0CE60BE32C0130E6005A
:1009D800660883160313A20783160313210822024D
:1009E800031CF72CF82CC42C201BFB2CFC2C582D9A
:1009F8002208031D002D012D0C2D00308312031336
:100A0800E1000030E0000030DF000030DE00BA2EE8
:100A1800831203136208DE07630803110318013EFB
:100A28000319172DDF07640803110318013E031982
:100A38001E2DE007650803110318013E0319252D33
:100A4800E107611C282D292D1E2E83160313231C54
:100A58002E2D2F2D3C2D230883120313E60003109F
:100A6800660C0138E700670883160313A3003E2DC0
:100A78000310A30C831203135E1C432D442D472D32
:100A880083160313A31701308312E600610DE10CEE
:100A9800E00CDF0CDE0CE60B4A2D0130E6006608A0
:100AA80083160313A2071E2E831203136108803ACC
:100AB800FF006508803A7F02031D6C2D6408600200
:100AC800031D6C2D63085F02031D6C2D62085E0216
:100AD80003186F2D702DCC2DFF30E600FF30E70096
:100AE800FF30E800FF30E9006208EA006308EB0025
:100AF8006408EC006508ED005E08EA025F08031C64
:100B08005F0F872D882DEB026008031C600F8D2D69
:100B18008E2DEC026108031C610F932D942DED02BC
:100B28006A08E6076B0803186B0F9B2D9C2DE707D7
:100B38006C0803186C0FA12DA22DE8076D08031887
:100B48006D0AE9076908E1006808E0006708DF0046
:100B58006608DE008030E600660883160313A006E8
:100B6800A309A30A2308031DBA2DBB2DDA2D0130D2
:100B780083120313DE07003003180130DF0700304B
:100B880003180130E007003003180130E107DA2DBF
:100B98006208DE026308031C630FDF026408031C9B
:100BA800640FE0026508031C650FE1028312610807
:100BB80060045F045E04031DE22DE32D192E8316E5
:100BC80003132308031DE92DEA2D192E0030831283
:100BD8000313E1000030E0000030DF000030DE00E9
:100BE800BA2E0130E6000310DE0DDF0DE00DE10D39
:100BF800E60BF72D83160313A31F032E042E072ECF
:100C0800831203135E1483160313231C0C2E0D2E5C
:100C1800102E0314A30D122E0310A30D220803197E
:100C2800162E172E192E0130A2028312E01F1D2E38
:100C38001E2EF52D83160313A101A31F242E252E86
:100C4800372E23087F3903192A2E2B2E302E831690
:100C58000313A101A10A372E831203135E1C352E3C
:100C6800362E372E2B2E83160313210803193D2EFB
:100C78003E2E7A2E013083120313DE07003003184C
:100C88000130DF07003003180130E0070030031897
:100C98000130E107611C512E522E7A2E5E08E600C3
:100CA8005F08E7006008E8006108E9000130EA0031
:100CB800690DE90CE80CE70CE60CEA0B5C2E6908F8
:100CC800E1006808E0006708DF006608DE008316B8
:100CD8000313220A0319712E722E7A2E0130831201
:100CE8000313E600660883160313A207831603138B
:100CF800220A0319802E812E862E2208031D852E96
:100D0800862E982E003083120313E1000030E00095
:100D18000030DF000030DE00831603132208031DB5
:100D2800962E972E982EA001221C9B2E9C2EA02E2C
:100D380083120313E017A62E7F3083120313E600F5
:100D48006608E00583160313220883120313E600DE
:100D58000310660CE7006708E10083160313A01F61
:100D6800B62EB72EBA2E83120313E117080083128A
:100D78000313A40024080319C22EC32ED72EF61F6E
:100D8800C62EC72ED72E7309A6007409A7007509A9
:100D9800A8007609A900A60A0319A70A0319A80A30
:100DA8000319A90ADF2E7608A9007508A800740897
:100DB800A7007308A6007608750474047304031D5D
:100DC800E62EE72EF02E0030F6000030F500003059
:100DD800F4000030F300762F9630A0002008A5001C
:100DE800022F0130A0002008A50701300310A90C2C
:100DF800A80CA70CA60CFF3E031DFA2EFE302905F1
:100E0800031D072F082FF52E242F0130A0002008DE
:100E1800A5070130A607003003180130A7070030E6
:100E280003180130A807003003180130A907013062
:100E38000310A90CA80CA70CA60CFF3E031D1C2F21
:100E4800FF302905031D292F2A2F092F362F01309E
:100E5800A5020130A0000310A60DA70DA80DA90D2D
:100E6800A00B2F2FA81B392F3A2F402F0230250215
:100E780003183F2F402F2B2F2518432F442F4C2F7B
:100E8800FF30A605FF30A7057F30A805FF30A9056C
:100E98000310A50C2508A000A101A201A301183088
:100EA8000310A00DA10DA20DA30DFF3E031D542F8D
:100EB8002008A6042108A7042208A8042308A904D6
:100EC80024080319682F692F6E2FF61F6C2F6D2FBA
:100ED8006E2FA9172908F6002808F5002708F4003E
:100EE8002608F3000800031083160313260D270DA8
:100EF800A8002808F8007808031D832F842F8D2F59
:100F08000030A7000030A6000030A5000030A40083
:100F1800F22F2408A8002508A9002608AA002708F7
:100F2800AB001F300310AB0CAA0CA90CA80CFF3E99
:100F3800031D962F2808AC002C08F700A617FF30D1
:100F4800A405FF30A505FF30A6050030A70596309B
:100F5800F802F81FB02FB12FCB2F7808803A973EB0
:100F68000318B72FB82FB92F842F01300310A70CFF
:100F7800A60CA50CA40CFF3E031DBA2F0130A80037
:100F88002808F807031DC92FCA2FB92FE22F2030D0
:100F98007802031CD02FD12FDD2F842F0130A80019
:100FA8000310A40DA50DA60DA70DA80BD42F013075
:100FB800F8027808031DE12FE22FD22F77080319D2
:100FC800E62FE72FF22FA409A509A609A709A40A65
:0E0FD8000319A50A0319A60A0319A70A08009F
:1017A20083120313A400A001A1017308F500F6013E
:1017B2007508A2007608A300241CE02BE12BE72B7E
:1017C2002208A0070318A10A2308A1070130031069
:1017D200A20DA30DFF3E031DE82B0310A40C240849
:1017E200031DF42BF52BDD2B2108F4002008F30058
:1017F200080083120313051CFF2B002C0E2C0C1F58
:10180200032C042C3A2C1E08F000700883160313D4
:10181200B700831203130C133A2C8C1D112C122CBB
:10182200252C1308F0007008F9000F30790603190F
:101832001B2C1C2C212C790888007A089300232C5D
:101842007A0893008C113A2C0B1C282C292C3A2C48
:1018520006182C2C2D2C322C0130F0007008FA07BF
:10186200382C8618352C362C382C0130FA020B1005
:101872003A2C72088A00710E8300FE0E7E0E090059
:1018820002308316031788008901831603130F0899
:101892008F3940388F000F142730850083120313CD
:1018A2008501831603138801831203138801051C23
:1018B2005B2C5C2C8E2C1030831603138700831252
:1018C20003138701F0309405141294168316031340
:1018D2001417941737088312031393003F309F05A0
:1018E200831603131F129F12831203131F08C33997
:1018F20004389F00831603139F13831203131F14CC
:101902000330F300F30B832C831203130C1383169F
:1019120003130C170B178B17D22C183083160313D3
:101922008700831203138701FF3083160313860097
:10193200831203131408F039043894001412941615
:101942008316031314179413831203138C11831633
:1019520003138C150B178B178113033095008B150E
:10196200033096000B100715FA309200831203130E
:1019720097013F3097051708F0390C38970001306E
:1019820095001708CF39103897008C100330920455
:1019920012158C1CCD2CCE2CCA2C8C108316031342
:1019A200071108000A128A1541240A128A158312A5
:1019B2000313051CDD2CDE2C222D9F18E12CE22CBA
:1019C200E32C9F1483160313370883120313930027
:1019D20083160313141CEE2CEF2CE92C8312031331
:1019E2008517043083160313B4003D30B300B30BE4
:1019F200F82CB40BF82C83120313851304308316CE
:101A02000313B4003D30B300B30B052DB40B052D09
:101A12000F3083120313930083160313141C122D29
:101A2200132D0D2D8312031313088800043083161F
:101A32000313B4003D30B300B30B1D2DB40B1D2DA9
:101A42005E2D83160313AD01FF30B3003308AE00E1
:101A52002830AF000030B0008230B1000030B20058
:101A62008312031308080A128A1569250A128A15B5
:101A7200831603132E08B6002D08B5003608B400ED
:101A82003508B3000310B40CB30C0310B40CB30C40
:101A920033088312031395008316031335080339A1
:101AA200B300B30E8312031317088316031333060E
:101AB200CF39330683120313970083120313051DD4
:101AC200632D642DD82C8801D82C0A128A110C2877
:101AD20083120313EE00831603132F08F30030085A
:101AE200F400F501F60100300A128A11BB260A122F
:101AF2008A15760883120313E5007508E40074085A
:101B0200E3007308E200831603132F083102F30087
:101B12003008031C300A3202F400F501F6010030ED
:101B22000A128A11BB260A128A1576088312031337
:101B3200B1007508B0007408AF007308AE008316D8
:101B420003132D082E02F300F401031CF403F50124
:101B5200F41BF5037508F60001300A128A11BB2640
:101B62000A128A15760883120313AD007508AC00B9
:101B72007408AB007308AA000A128A1523260A12F7
:101B82008A15831203132D08CB002C08CA002B08D8
:101B9200C9002A08C800831603132D0883120313F1
:101BA2006E02F300F401031CF403F501F41BF503C8
:101BB2007508F60001300A128A11BB260A128A152C
:101BC200760883120313C7007508C6007408C5009F
:101BD2007308C4000A128A111A200A128A15831283
:101BE20003134708E1004608E0004508DF00440807
:101BF200DE000A128A117B230A128A15831203134A
:101C0200610883160313A700831203136008831667
:101C12000313A600831203135F0883160313A500A0
:101C2200831203135E0883160313A4000A128A1197
:101C320077270A128A15831603132508AE00240893
:101C4200AD0008008312031331088039B200320854
:101C5200BB003108B2003207B3003308C200B01F24
:101C6200332E342E352E421442080319392E3A2EC1
:101C72004A2E420A031D3E2E3F2E472E0030B1004F
:101C82000030B0000030AF000030AE00B017B1013C
:101C9200522E0030B1000030B0000030AF000030F2
:101CA200AE002D088039B2003208BB062D08B20002
:101CB2003207B3003308C300AC1F602E612E622EC0
:101CC200431443080319662E672E772E430A031D19
:101CD2006B2E6C2E742E0030AD000030AC00003044
:101CE200AB000030AA00AC17AD017F2E0030AD0072
:101CF2000030AC000030AB000030AA002D082C04EC
:101D02002B042A04031D862E872EA02E0030B1003C
:101D12000030B0000030AF000030AE008030B004C0
:101D22007F30B1043B08B2003208B1043108AD0083
:101D32003008AC002F08AB002E08AA00FF2F420883
:101D4200031DA42EA52EAE2E0030AD000030AC0037
:101D52000030AB000030AA00FF2F4208B200B301EE
:101D62003308B50043083202B400031CB50334083B
:101D72007F3EBC0035080318013E003EBD0031081D
:101D8200BA003008B9002F08B8002E08B70000309A
:101D9200B1000030B0000030AF000030AE000030C3
:101DA200C1000030C0000030BF000030BE00C301DF
:101DB200242F43080319DE2EDF2EFF2E0130B2003E
:101DC2000310B70DB80DB90DBA0DB20BE12E0130EB
:101DD200B2000310AE0DAF0DB00DB10DB20BEA2E75
:101DE200C11FF42EF52EF62E2E140130B200031070
:101DF200BE0DBF0DC00DC10DB20BF82E2D083A025B
:101E0200031D0D2F2C083902031D0D2F2B0838023C
:101E1200031D0D2F2A083702031C102F112F202F0C
:101E220041172A08B7022B08031C2B0FB8022C08F3
:101E3200031C2C0FB9022D08031C2D0FBA0201300E
:101E4200B2003208C3071A304302031C292F2A2F7B
:101E5200DA2E3A083904380437040319312F322FA5
:101E6200512F3E14512F0130B2000310AE0DAF0DB1
:101E7200B00DB10DB20B362FC11F402F412F422F93
:101E82002E140130B2000310BE0DBF0DC00DC10DE6
:101E9200B20B442FFF30BC070318BD0AFF30BD0749
:101EA200B01F542F552F342FC301C11F592F5A2F42
:101EB200762FFF303E05B200FF303F05B300FF3002
:101EC2004005B4007F304105B500350834043304C1
:101ED200320403196D2F6E2F712FC301C30A762F9F
:101EE2002E1C742F752F762F6E2F430803197A2F0D
:101EF2007B2FAC2F0130AE07003003180130AF0743
:101F0200003003180130B007003003180130B10768
:101F1200311C8C2F8D2FAC2F2E08B2002F08B3004E
:101F22003008B4003108B5000130B600350DB50CEB
:101F3200B40CB30CB20CB60B972F3508B1003408B1
:101F4200B0003308AF003208AE000130BC070318FE
:101F5200BD0A0030BD073D08803AFF0080307F0295
:101F6200031DB52FFF303C02031CB82FB92FC72F1A
:101F7200FF3083120313BC000030BD000030B100FB
:101F82000030B0000030AF000030AE008312031307
:101F92003D08803AFF0080307F02031DD22F0130BE
:101FA2003C020318D52FD62FE32F83120313BC0153
:101FB200BD010030B1000030B0000030AF00003091
:101FC200AE00BB01831203133C08B2003208C20008
:101FD200421CEC2FED2FEF2FB017F32F7F30B20002
:101FE2003208B0054208B2000310320CB3003308C5
:0E1FF200B1003B08B2003208B104972E08007F
:08400000FF3FFF3FFF3FFF3FC0
:04400E00D420FF3F7C
:00000001FF
